{
	"contracts/coffeeaccesscontrol/DistributorRole.sol": {
		"DistributorRole": {
			"abi": [
				{
					"inputs": [],
					"payable": false,
					"stateMutability": "nonpayable",
					"type": "constructor"
				},
				{
					"anonymous": false,
					"inputs": [
						{
							"indexed": true,
							"internalType": "address",
							"name": "account",
							"type": "address"
						}
					],
					"name": "DistributorAdded",
					"type": "event"
				},
				{
					"anonymous": false,
					"inputs": [
						{
							"indexed": true,
							"internalType": "address",
							"name": "account",
							"type": "address"
						}
					],
					"name": "DistributorRemoved",
					"type": "event"
				},
				{
					"constant": false,
					"inputs": [
						{
							"internalType": "address",
							"name": "account",
							"type": "address"
						}
					],
					"name": "addDistributor",
					"outputs": [],
					"payable": false,
					"stateMutability": "nonpayable",
					"type": "function"
				},
				{
					"constant": true,
					"inputs": [],
					"name": "getAllDistributors",
					"outputs": [
						{
							"internalType": "address[]",
							"name": "",
							"type": "address[]"
						}
					],
					"payable": false,
					"stateMutability": "view",
					"type": "function"
				},
				{
					"constant": true,
					"inputs": [
						{
							"internalType": "address",
							"name": "account",
							"type": "address"
						}
					],
					"name": "isDistributor",
					"outputs": [
						{
							"internalType": "bool",
							"name": "",
							"type": "bool"
						}
					],
					"payable": false,
					"stateMutability": "view",
					"type": "function"
				},
				{
					"constant": false,
					"inputs": [],
					"name": "renounceDistributor",
					"outputs": [],
					"payable": false,
					"stateMutability": "nonpayable",
					"type": "function"
				}
			],
			"devdoc": {
				"methods": {}
			},
			"evm": {
				"assembly": "    /* \"contracts/coffeeaccesscontrol/DistributorRole.sol\":159:1924  contract DistributorRole {... */\n  mstore(0x40, 0x80)\n    /* \"contracts/coffeeaccesscontrol/DistributorRole.sol\":593:652  constructor() public {... */\n  callvalue\n    /* \"--CODEGEN--\":8:17   */\n  dup1\n    /* \"--CODEGEN--\":5:7   */\n  iszero\n  tag_1\n  jumpi\n    /* \"--CODEGEN--\":30:31   */\n  0x00\n    /* \"--CODEGEN--\":27:28   */\n  dup1\n    /* \"--CODEGEN--\":20:32   */\n  revert\n    /* \"--CODEGEN--\":5:7   */\ntag_1:\n    /* \"contracts/coffeeaccesscontrol/DistributorRole.sol\":593:652  constructor() public {... */\n  pop\n    /* \"contracts/coffeeaccesscontrol/DistributorRole.sol\":620:647  _addDistributor(msg.sender) */\n  tag_4\n    /* \"contracts/coffeeaccesscontrol/DistributorRole.sol\":636:646  msg.sender */\n  caller\n    /* \"contracts/coffeeaccesscontrol/DistributorRole.sol\":620:635  _addDistributor */\n  shl(0x20, tag_5)\n    /* \"contracts/coffeeaccesscontrol/DistributorRole.sol\":620:647  _addDistributor(msg.sender) */\n  0x20\n  shr\n  jump\t// in\ntag_4:\n    /* \"contracts/coffeeaccesscontrol/DistributorRole.sol\":159:1924  contract DistributorRole {... */\n  jump(tag_6)\n    /* \"contracts/coffeeaccesscontrol/DistributorRole.sol\":1440:1563  function _addDistributor(address account) internal {... */\ntag_5:\n    /* \"contracts/coffeeaccesscontrol/DistributorRole.sol\":1497:1522  distributors.add(account) */\n  tag_8\n    /* \"contracts/coffeeaccesscontrol/DistributorRole.sol\":1514:1521  account */\n  dup2\n    /* \"contracts/coffeeaccesscontrol/DistributorRole.sol\":1497:1509  distributors */\n  0x00\n    /* \"contracts/coffeeaccesscontrol/DistributorRole.sol\":1497:1513  distributors.add */\n  or(tag_0_40, shl(0x20, tag_9))\n  swap1\n    /* \"contracts/coffeeaccesscontrol/DistributorRole.sol\":1497:1522  distributors.add(account) */\n  swap2\n  swap1\n  0x20\n  shr\n  jump\t// in\ntag_8:\n    /* \"contracts/coffeeaccesscontrol/DistributorRole.sol\":1550:1557  account */\n  dup1\n    /* \"contracts/coffeeaccesscontrol/DistributorRole.sol\":1533:1558  DistributorAdded(account) */\n  0xffffffffffffffffffffffffffffffffffffffff\n  and\n  0xddbf200aa634dc3fb81cfd68583dd1040d1c751d335e1d86b631bde3e977fea8\n  mload(0x40)\n  mload(0x40)\n  dup1\n  swap2\n  sub\n  swap1\n  log2\n    /* \"contracts/coffeeaccesscontrol/DistributorRole.sol\":1440:1563  function _addDistributor(address account) internal {... */\n  pop\n  jump\t// out\n    /* \"contracts/coffeeaccesscontrol/Roles.sol\":244:435  function add(Role storage role, address account) internal {... */\ntag_9:\n    /* \"contracts/coffeeaccesscontrol/Roles.sol\":335:336  0 */\n  0x00\n    /* \"contracts/coffeeaccesscontrol/Roles.sol\":316:337  account != address(0) */\n  0xffffffffffffffffffffffffffffffffffffffff\n  and\n    /* \"contracts/coffeeaccesscontrol/Roles.sol\":316:323  account */\n  dup2\n    /* \"contracts/coffeeaccesscontrol/Roles.sol\":316:337  account != address(0) */\n  0xffffffffffffffffffffffffffffffffffffffff\n  and\n  eq\n  iszero\n    /* \"contracts/coffeeaccesscontrol/Roles.sol\":308:362  require(account != address(0), \"Account is 0 address\") */\n  tag_11\n  jumpi\n  mload(0x40)\n  0x08c379a000000000000000000000000000000000000000000000000000000000\n  dup2\n  mstore\n  0x04\n  add\n  dup1\n  dup1\n  0x20\n  add\n  dup3\n  dup2\n  sub\n  dup3\n  mstore\n  0x14\n  dup2\n  mstore\n  0x20\n  add\n  dup1\n  0x4163636f756e7420697320302061646472657373000000000000000000000000\n  dup2\n  mstore\n  pop\n  0x20\n  add\n  swap2\n  pop\n  pop\n  mload(0x40)\n  dup1\n  swap2\n  sub\n  swap1\n  revert\ntag_11:\n    /* \"contracts/coffeeaccesscontrol/Roles.sol\":377:395  has(role, account) */\n  tag_12\n    /* \"contracts/coffeeaccesscontrol/Roles.sol\":381:385  role */\n  dup3\n    /* \"contracts/coffeeaccesscontrol/Roles.sol\":387:394  account */\n  dup3\n    /* \"contracts/coffeeaccesscontrol/Roles.sol\":377:380  has */\n  shl(0x20, tag_13)\n    /* \"contracts/coffeeaccesscontrol/Roles.sol\":377:395  has(role, account) */\n  0x20\n  shr\n  jump\t// in\ntag_12:\n    /* \"contracts/coffeeaccesscontrol/Roles.sol\":376:395  !has(role, account) */\n  iszero\n    /* \"contracts/coffeeaccesscontrol/Roles.sol\":368:396  require(!has(role, account)) */\n  tag_14\n  jumpi\n  0x00\n  dup1\n  revert\ntag_14:\n    /* \"contracts/coffeeaccesscontrol/Roles.sol\":426:430  true */\n  0x01\n    /* \"contracts/coffeeaccesscontrol/Roles.sol\":403:407  role */\n  dup3\n    /* \"contracts/coffeeaccesscontrol/Roles.sol\":403:414  role.bearer */\n  0x00\n  add\n    /* \"contracts/coffeeaccesscontrol/Roles.sol\":403:423  role.bearer[account] */\n  0x00\n    /* \"contracts/coffeeaccesscontrol/Roles.sol\":415:422  account */\n  dup4\n    /* \"contracts/coffeeaccesscontrol/Roles.sol\":403:423  role.bearer[account] */\n  0xffffffffffffffffffffffffffffffffffffffff\n  and\n  0xffffffffffffffffffffffffffffffffffffffff\n  and\n  dup2\n  mstore\n  0x20\n  add\n  swap1\n  dup2\n  mstore\n  0x20\n  add\n  0x00\n  keccak256\n  0x00\n    /* \"contracts/coffeeaccesscontrol/Roles.sol\":403:430  role.bearer[account] = true */\n  0x0100\n  exp\n  dup2\n  sload\n  dup2\n  0xff\n  mul\n  not\n  and\n  swap1\n  dup4\n  iszero\n  iszero\n  mul\n  or\n  swap1\n  sstore\n  pop\n    /* \"contracts/coffeeaccesscontrol/Roles.sol\":244:435  function add(Role storage role, address account) internal {... */\n  pop\n  pop\n  jump\t// out\n    /* \"contracts/coffeeaccesscontrol/Roles.sol\":749:915  function has(Role storage role, address account)... */\ntag_13:\n    /* \"contracts/coffeeaccesscontrol/Roles.sol\":833:837  bool */\n  0x00\n    /* \"contracts/coffeeaccesscontrol/Roles.sol\":874:875  0 */\n  dup1\n    /* \"contracts/coffeeaccesscontrol/Roles.sol\":855:876  account != address(0) */\n  0xffffffffffffffffffffffffffffffffffffffff\n  and\n    /* \"contracts/coffeeaccesscontrol/Roles.sol\":855:862  account */\n  dup3\n    /* \"contracts/coffeeaccesscontrol/Roles.sol\":855:876  account != address(0) */\n  0xffffffffffffffffffffffffffffffffffffffff\n  and\n  eq\n  iszero\n    /* \"contracts/coffeeaccesscontrol/Roles.sol\":847:877  require(account != address(0)) */\n  tag_16\n  jumpi\n  0x00\n  dup1\n  revert\ntag_16:\n    /* \"contracts/coffeeaccesscontrol/Roles.sol\":890:894  role */\n  dup3\n    /* \"contracts/coffeeaccesscontrol/Roles.sol\":890:901  role.bearer */\n  0x00\n  add\n    /* \"contracts/coffeeaccesscontrol/Roles.sol\":890:910  role.bearer[account] */\n  0x00\n    /* \"contracts/coffeeaccesscontrol/Roles.sol\":902:909  account */\n  dup4\n    /* \"contracts/coffeeaccesscontrol/Roles.sol\":890:910  role.bearer[account] */\n  0xffffffffffffffffffffffffffffffffffffffff\n  and\n  0xffffffffffffffffffffffffffffffffffffffff\n  and\n  dup2\n  mstore\n  0x20\n  add\n  swap1\n  dup2\n  mstore\n  0x20\n  add\n  0x00\n  keccak256\n  0x00\n  swap1\n  sload\n  swap1\n  0x0100\n  exp\n  swap1\n  div\n  0xff\n  and\n    /* \"contracts/coffeeaccesscontrol/Roles.sol\":883:910  return role.bearer[account] */\n  swap1\n  pop\n    /* \"contracts/coffeeaccesscontrol/Roles.sol\":749:915  function has(Role storage role, address account)... */\n  swap3\n  swap2\n  pop\n  pop\n  jump\t// out\n    /* \"contracts/coffeeaccesscontrol/DistributorRole.sol\":159:1924  contract DistributorRole {... */\ntag_6:\n  dataSize(sub_0)\n  dup1\n  dataOffset(sub_0)\n  0x00\n  codecopy\n  0x00\n  return\nstop\n\nsub_0: assembly {\n        /* \"contracts/coffeeaccesscontrol/DistributorRole.sol\":159:1924  contract DistributorRole {... */\n      mstore(0x40, 0x80)\n      callvalue\n        /* \"--CODEGEN--\":8:17   */\n      dup1\n        /* \"--CODEGEN--\":5:7   */\n      iszero\n      tag_1\n      jumpi\n        /* \"--CODEGEN--\":30:31   */\n      0x00\n        /* \"--CODEGEN--\":27:28   */\n      dup1\n        /* \"--CODEGEN--\":20:32   */\n      revert\n        /* \"--CODEGEN--\":5:7   */\n    tag_1:\n        /* \"contracts/coffeeaccesscontrol/DistributorRole.sol\":159:1924  contract DistributorRole {... */\n      pop\n      jumpi(tag_2, lt(calldatasize, 0x04))\n      shr(0xe0, calldataload(0x00))\n      dup1\n      0x644241db\n      eq\n      tag_3\n      jumpi\n      dup1\n      0x7250e224\n      eq\n      tag_4\n      jumpi\n      dup1\n      0x8e24c34b\n      eq\n      tag_5\n      jumpi\n      dup1\n      0x8f0c86fa\n      eq\n      tag_6\n      jumpi\n    tag_2:\n      0x00\n      dup1\n      revert\n        /* \"contracts/coffeeaccesscontrol/DistributorRole.sol\":1261:1340  function renounceDistributor() public {... */\n    tag_3:\n      tag_7\n      tag_8\n      jump\t// in\n    tag_7:\n      stop\n        /* \"contracts/coffeeaccesscontrol/DistributorRole.sol\":1091:1190  function addDistributor(address account) public onlyDistributor {... */\n    tag_4:\n      tag_9\n      0x04\n      dup1\n      calldatasize\n      sub\n        /* \"--CODEGEN--\":13:15   */\n      0x20\n        /* \"--CODEGEN--\":8:11   */\n      dup2\n        /* \"--CODEGEN--\":5:16   */\n      lt\n        /* \"--CODEGEN--\":2:4   */\n      iszero\n      tag_10\n      jumpi\n        /* \"--CODEGEN--\":29:30   */\n      0x00\n        /* \"--CODEGEN--\":26:27   */\n      dup1\n        /* \"--CODEGEN--\":19:31   */\n      revert\n        /* \"--CODEGEN--\":2:4   */\n    tag_10:\n        /* \"contracts/coffeeaccesscontrol/DistributorRole.sol\":1091:1190  function addDistributor(address account) public onlyDistributor {... */\n      dup2\n      add\n      swap1\n      dup1\n      dup1\n      calldataload\n      0xffffffffffffffffffffffffffffffffffffffff\n      and\n      swap1\n      0x20\n      add\n      swap1\n      swap3\n      swap2\n      swap1\n      pop\n      pop\n      pop\n      tag_11\n      jump\t// in\n    tag_9:\n      stop\n        /* \"contracts/coffeeaccesscontrol/DistributorRole.sol\":1567:1682  function getAllDistributors() public view returns (address[] memory) {... */\n    tag_5:\n      tag_12\n      tag_13\n      jump\t// in\n    tag_12:\n      mload(0x40)\n      dup1\n      dup1\n      0x20\n      add\n      dup3\n      dup2\n      sub\n      dup3\n      mstore\n      dup4\n      dup2\n      dup2\n      mload\n      dup2\n      mstore\n      0x20\n      add\n      swap2\n      pop\n      dup1\n      mload\n      swap1\n      0x20\n      add\n      swap1\n      0x20\n      mul\n      dup1\n      dup4\n      dup4\n        /* \"--CODEGEN--\":23:24   */\n      0x00\n        /* \"--CODEGEN--\":8:108   */\n    tag_14:\n        /* \"--CODEGEN--\":33:36   */\n      dup4\n        /* \"--CODEGEN--\":30:31   */\n      dup2\n        /* \"--CODEGEN--\":27:37   */\n      lt\n        /* \"--CODEGEN--\":8:108   */\n      iszero\n      tag_16\n      jumpi\n        /* \"--CODEGEN--\":99:100   */\n      dup1\n        /* \"--CODEGEN--\":94:97   */\n      dup3\n        /* \"--CODEGEN--\":90:101   */\n      add\n        /* \"--CODEGEN--\":84:102   */\n      mload\n        /* \"--CODEGEN--\":80:81   */\n      dup2\n        /* \"--CODEGEN--\":75:78   */\n      dup5\n        /* \"--CODEGEN--\":71:82   */\n      add\n        /* \"--CODEGEN--\":64:103   */\n      mstore\n        /* \"--CODEGEN--\":52:54   */\n      0x20\n        /* \"--CODEGEN--\":49:50   */\n      dup2\n        /* \"--CODEGEN--\":45:55   */\n      add\n        /* \"--CODEGEN--\":40:55   */\n      swap1\n      pop\n        /* \"--CODEGEN--\":8:108   */\n      jump(tag_14)\n    tag_16:\n        /* \"--CODEGEN--\":12:26   */\n      pop\n        /* \"contracts/coffeeaccesscontrol/DistributorRole.sol\":1567:1682  function getAllDistributors() public view returns (address[] memory) {... */\n      pop\n      pop\n      pop\n      swap1\n      pop\n      add\n      swap3\n      pop\n      pop\n      pop\n      mload(0x40)\n      dup1\n      swap2\n      sub\n      swap1\n      return\n        /* \"contracts/coffeeaccesscontrol/DistributorRole.sol\":924:1027  function isDistributor(address account) public view returns (bool) {... */\n    tag_6:\n      tag_17\n      0x04\n      dup1\n      calldatasize\n      sub\n        /* \"--CODEGEN--\":13:15   */\n      0x20\n        /* \"--CODEGEN--\":8:11   */\n      dup2\n        /* \"--CODEGEN--\":5:16   */\n      lt\n        /* \"--CODEGEN--\":2:4   */\n      iszero\n      tag_18\n      jumpi\n        /* \"--CODEGEN--\":29:30   */\n      0x00\n        /* \"--CODEGEN--\":26:27   */\n      dup1\n        /* \"--CODEGEN--\":19:31   */\n      revert\n        /* \"--CODEGEN--\":2:4   */\n    tag_18:\n        /* \"contracts/coffeeaccesscontrol/DistributorRole.sol\":924:1027  function isDistributor(address account) public view returns (bool) {... */\n      dup2\n      add\n      swap1\n      dup1\n      dup1\n      calldataload\n      0xffffffffffffffffffffffffffffffffffffffff\n      and\n      swap1\n      0x20\n      add\n      swap1\n      swap3\n      swap2\n      swap1\n      pop\n      pop\n      pop\n      tag_19\n      jump\t// in\n    tag_17:\n      mload(0x40)\n      dup1\n      dup3\n      iszero\n      iszero\n      iszero\n      iszero\n      dup2\n      mstore\n      0x20\n      add\n      swap2\n      pop\n      pop\n      mload(0x40)\n      dup1\n      swap2\n      sub\n      swap1\n      return\n        /* \"contracts/coffeeaccesscontrol/DistributorRole.sol\":1261:1340  function renounceDistributor() public {... */\n    tag_8:\n        /* \"contracts/coffeeaccesscontrol/DistributorRole.sol\":1305:1335  _removeDistributor(msg.sender) */\n      tag_21\n        /* \"contracts/coffeeaccesscontrol/DistributorRole.sol\":1324:1334  msg.sender */\n      caller\n        /* \"contracts/coffeeaccesscontrol/DistributorRole.sol\":1305:1323  _removeDistributor */\n      tag_22\n        /* \"contracts/coffeeaccesscontrol/DistributorRole.sol\":1305:1335  _removeDistributor(msg.sender) */\n      jump\t// in\n    tag_21:\n        /* \"contracts/coffeeaccesscontrol/DistributorRole.sol\":1261:1340  function renounceDistributor() public {... */\n      jump\t// out\n        /* \"contracts/coffeeaccesscontrol/DistributorRole.sol\":1091:1190  function addDistributor(address account) public onlyDistributor {... */\n    tag_11:\n        /* \"contracts/coffeeaccesscontrol/DistributorRole.sol\":778:803  isDistributor(msg.sender) */\n      tag_24\n        /* \"contracts/coffeeaccesscontrol/DistributorRole.sol\":792:802  msg.sender */\n      caller\n        /* \"contracts/coffeeaccesscontrol/DistributorRole.sol\":778:791  isDistributor */\n      tag_19\n        /* \"contracts/coffeeaccesscontrol/DistributorRole.sol\":778:803  isDistributor(msg.sender) */\n      jump\t// in\n    tag_24:\n        /* \"contracts/coffeeaccesscontrol/DistributorRole.sol\":770:850  require(isDistributor(msg.sender), \"Only a distributor can call this function.\") */\n      tag_25\n      jumpi\n      mload(0x40)\n      0x08c379a000000000000000000000000000000000000000000000000000000000\n      dup2\n      mstore\n      0x04\n      add\n      dup1\n      dup1\n      0x20\n      add\n      dup3\n      dup2\n      sub\n      dup3\n      mstore\n      0x2a\n      dup2\n      mstore\n      0x20\n      add\n      dup1\n      data_d4fa28ebc6c1c07b8b28cc8da1429dbf7b893b203aa1eb11aa2f29c11f0f7b6a\n      0x2a\n      swap2\n      codecopy\n      0x40\n      add\n      swap2\n      pop\n      pop\n      mload(0x40)\n      dup1\n      swap2\n      sub\n      swap1\n      revert\n    tag_25:\n        /* \"contracts/coffeeaccesscontrol/DistributorRole.sol\":1161:1185  _addDistributor(account) */\n      tag_27\n        /* \"contracts/coffeeaccesscontrol/DistributorRole.sol\":1177:1184  account */\n      dup2\n        /* \"contracts/coffeeaccesscontrol/DistributorRole.sol\":1161:1176  _addDistributor */\n      tag_28\n        /* \"contracts/coffeeaccesscontrol/DistributorRole.sol\":1161:1185  _addDistributor(account) */\n      jump\t// in\n    tag_27:\n        /* \"contracts/coffeeaccesscontrol/DistributorRole.sol\":1091:1190  function addDistributor(address account) public onlyDistributor {... */\n      pop\n      jump\t// out\n        /* \"contracts/coffeeaccesscontrol/DistributorRole.sol\":1567:1682  function getAllDistributors() public view returns (address[] memory) {... */\n    tag_13:\n        /* \"contracts/coffeeaccesscontrol/DistributorRole.sol\":1618:1634  address[] memory */\n      0x60\n        /* \"contracts/coffeeaccesscontrol/DistributorRole.sol\":1649:1677  distributors.getAllMembers() */\n      tag_30\n        /* \"contracts/coffeeaccesscontrol/DistributorRole.sol\":1649:1661  distributors */\n      0x00\n        /* \"contracts/coffeeaccesscontrol/DistributorRole.sol\":1649:1675  distributors.getAllMembers */\n      tag_31\n        /* \"contracts/coffeeaccesscontrol/DistributorRole.sol\":1649:1677  distributors.getAllMembers() */\n      jump\t// in\n    tag_30:\n        /* \"contracts/coffeeaccesscontrol/DistributorRole.sol\":1642:1677  return distributors.getAllMembers() */\n      swap1\n      pop\n        /* \"contracts/coffeeaccesscontrol/DistributorRole.sol\":1567:1682  function getAllDistributors() public view returns (address[] memory) {... */\n      swap1\n      jump\t// out\n        /* \"contracts/coffeeaccesscontrol/DistributorRole.sol\":924:1027  function isDistributor(address account) public view returns (bool) {... */\n    tag_19:\n        /* \"contracts/coffeeaccesscontrol/DistributorRole.sol\":985:989  bool */\n      0x00\n        /* \"contracts/coffeeaccesscontrol/DistributorRole.sol\":997:1022  distributors.has(account) */\n      tag_33\n        /* \"contracts/coffeeaccesscontrol/DistributorRole.sol\":1014:1021  account */\n      dup3\n        /* \"contracts/coffeeaccesscontrol/DistributorRole.sol\":997:1009  distributors */\n      0x00\n        /* \"contracts/coffeeaccesscontrol/DistributorRole.sol\":997:1013  distributors.has */\n      tag_34\n      swap1\n        /* \"contracts/coffeeaccesscontrol/DistributorRole.sol\":997:1022  distributors.has(account) */\n      swap2\n      swap1\n      0xffffffff\n      and\n      jump\t// in\n    tag_33:\n      pop\n        /* \"contracts/coffeeaccesscontrol/DistributorRole.sol\":924:1027  function isDistributor(address account) public view returns (bool) {... */\n      swap2\n      swap1\n      pop\n      jump\t// out\n        /* \"contracts/coffeeaccesscontrol/DistributorRole.sol\":1791:1922  function _removeDistributor(address account) internal {... */\n    tag_22:\n        /* \"contracts/coffeeaccesscontrol/DistributorRole.sol\":1851:1879  distributors.remove(account) */\n      tag_36\n        /* \"contracts/coffeeaccesscontrol/DistributorRole.sol\":1871:1878  account */\n      dup2\n        /* \"contracts/coffeeaccesscontrol/DistributorRole.sol\":1851:1863  distributors */\n      0x00\n        /* \"contracts/coffeeaccesscontrol/DistributorRole.sol\":1851:1870  distributors.remove */\n      tag_37\n      swap1\n        /* \"contracts/coffeeaccesscontrol/DistributorRole.sol\":1851:1879  distributors.remove(account) */\n      swap2\n      swap1\n      0xffffffff\n      and\n      jump\t// in\n    tag_36:\n        /* \"contracts/coffeeaccesscontrol/DistributorRole.sol\":1909:1916  account */\n      dup1\n        /* \"contracts/coffeeaccesscontrol/DistributorRole.sol\":1890:1917  DistributorRemoved(account) */\n      0xffffffffffffffffffffffffffffffffffffffff\n      and\n      0x126174f6cf49c81cdb4a9214c6b8f037bef55b4ec31e4fc776cea2a1c8a88d59\n      mload(0x40)\n      mload(0x40)\n      dup1\n      swap2\n      sub\n      swap1\n      log2\n        /* \"contracts/coffeeaccesscontrol/DistributorRole.sol\":1791:1922  function _removeDistributor(address account) internal {... */\n      pop\n      jump\t// out\n        /* \"contracts/coffeeaccesscontrol/DistributorRole.sol\":1440:1563  function _addDistributor(address account) internal {... */\n    tag_28:\n        /* \"contracts/coffeeaccesscontrol/DistributorRole.sol\":1497:1522  distributors.add(account) */\n      tag_39\n        /* \"contracts/coffeeaccesscontrol/DistributorRole.sol\":1514:1521  account */\n      dup2\n        /* \"contracts/coffeeaccesscontrol/DistributorRole.sol\":1497:1509  distributors */\n      0x00\n        /* \"contracts/coffeeaccesscontrol/DistributorRole.sol\":1497:1513  distributors.add */\n      tag_40\n      swap1\n        /* \"contracts/coffeeaccesscontrol/DistributorRole.sol\":1497:1522  distributors.add(account) */\n      swap2\n      swap1\n      0xffffffff\n      and\n      jump\t// in\n    tag_39:\n        /* \"contracts/coffeeaccesscontrol/DistributorRole.sol\":1550:1557  account */\n      dup1\n        /* \"contracts/coffeeaccesscontrol/DistributorRole.sol\":1533:1558  DistributorAdded(account) */\n      0xffffffffffffffffffffffffffffffffffffffff\n      and\n      0xddbf200aa634dc3fb81cfd68583dd1040d1c751d335e1d86b631bde3e977fea8\n      mload(0x40)\n      mload(0x40)\n      dup1\n      swap2\n      sub\n      swap1\n      log2\n        /* \"contracts/coffeeaccesscontrol/DistributorRole.sol\":1440:1563  function _addDistributor(address account) internal {... */\n      pop\n      jump\t// out\n        /* \"contracts/coffeeaccesscontrol/Roles.sol\":919:1400  function getAllMembers(Role storage role)... */\n    tag_31:\n        /* \"contracts/coffeeaccesscontrol/Roles.sol\":996:1012  address[] memory */\n      0x60\n        /* \"contracts/coffeeaccesscontrol/Roles.sol\":1022:1035  uint256 count */\n      0x00\n        /* \"contracts/coffeeaccesscontrol/Roles.sol\":1038:1039  0 */\n      dup1\n        /* \"contracts/coffeeaccesscontrol/Roles.sol\":1022:1039  uint256 count = 0 */\n      swap1\n      pop\n        /* \"contracts/coffeeaccesscontrol/Roles.sol\":1050:1059  uint256 i */\n      0x00\n        /* \"contracts/coffeeaccesscontrol/Roles.sol\":1062:1063  0 */\n      dup1\n        /* \"contracts/coffeeaccesscontrol/Roles.sol\":1050:1063  uint256 i = 0 */\n      swap1\n      pop\n        /* \"contracts/coffeeaccesscontrol/Roles.sol\":1045:1148  for (uint256 i = 0; i < 256; i++) {... */\n    tag_42:\n        /* \"contracts/coffeeaccesscontrol/Roles.sol\":1069:1072  256 */\n      0x0100\n        /* \"contracts/coffeeaccesscontrol/Roles.sol\":1065:1066  i */\n      dup2\n        /* \"contracts/coffeeaccesscontrol/Roles.sol\":1065:1072  i < 256 */\n      lt\n        /* \"contracts/coffeeaccesscontrol/Roles.sol\":1045:1148  for (uint256 i = 0; i < 256; i++) {... */\n      iszero\n      tag_43\n      jumpi\n        /* \"contracts/coffeeaccesscontrol/Roles.sol\":1091:1095  role */\n      dup4\n        /* \"contracts/coffeeaccesscontrol/Roles.sol\":1091:1102  role.bearer */\n      0x00\n      add\n        /* \"contracts/coffeeaccesscontrol/Roles.sol\":1091:1114  role.bearer[address(i)] */\n      0x00\n        /* \"contracts/coffeeaccesscontrol/Roles.sol\":1111:1112  i */\n      dup3\n        /* \"contracts/coffeeaccesscontrol/Roles.sol\":1091:1114  role.bearer[address(i)] */\n      0xffffffffffffffffffffffffffffffffffffffff\n      and\n      0xffffffffffffffffffffffffffffffffffffffff\n      and\n      dup2\n      mstore\n      0x20\n      add\n      swap1\n      dup2\n      mstore\n      0x20\n      add\n      0x00\n      keccak256\n      0x00\n      swap1\n      sload\n      swap1\n      0x0100\n      exp\n      swap1\n      div\n      0xff\n      and\n        /* \"contracts/coffeeaccesscontrol/Roles.sol\":1087:1142  if (role.bearer[address(i)]) {... */\n      iszero\n      tag_45\n      jumpi\n        /* \"contracts/coffeeaccesscontrol/Roles.sol\":1126:1133  count++ */\n      dup2\n      dup1\n      0x01\n      add\n      swap3\n      pop\n      pop\n        /* \"contracts/coffeeaccesscontrol/Roles.sol\":1087:1142  if (role.bearer[address(i)]) {... */\n    tag_45:\n        /* \"contracts/coffeeaccesscontrol/Roles.sol\":1074:1077  i++ */\n      dup1\n      dup1\n      0x01\n      add\n      swap2\n      pop\n      pop\n        /* \"contracts/coffeeaccesscontrol/Roles.sol\":1045:1148  for (uint256 i = 0; i < 256; i++) {... */\n      jump(tag_42)\n    tag_43:\n      pop\n        /* \"contracts/coffeeaccesscontrol/Roles.sol\":1154:1178  address[] memory members */\n      0x60\n        /* \"contracts/coffeeaccesscontrol/Roles.sol\":1195:1200  count */\n      dup2\n        /* \"contracts/coffeeaccesscontrol/Roles.sol\":1181:1201  new address[](count) */\n      mload(0x40)\n      swap1\n      dup1\n      dup3\n      mstore\n      dup1\n      0x20\n      mul\n      0x20\n      add\n      dup3\n      add\n      0x40\n      mstore\n      dup1\n      iszero\n      tag_46\n      jumpi\n      dup2\n      0x20\n      add\n        /* \"--CODEGEN--\":29:31   */\n      0x20\n        /* \"--CODEGEN--\":21:27   */\n      dup3\n        /* \"--CODEGEN--\":17:32   */\n      mul\n        /* \"--CODEGEN--\":117:121   */\n      dup1\n        /* \"--CODEGEN--\":105:115   */\n      codesize\n        /* \"--CODEGEN--\":97:103   */\n      dup4\n        /* \"--CODEGEN--\":88:122   */\n      codecopy\n        /* \"--CODEGEN--\":148:152   */\n      dup1\n        /* \"--CODEGEN--\":140:146   */\n      dup3\n        /* \"--CODEGEN--\":136:153   */\n      add\n        /* \"--CODEGEN--\":126:153   */\n      swap2\n      pop\n        /* \"--CODEGEN--\":0:157   */\n      pop\n        /* \"contracts/coffeeaccesscontrol/Roles.sol\":1181:1201  new address[](count) */\n      swap1\n      pop\n    tag_46:\n      pop\n        /* \"contracts/coffeeaccesscontrol/Roles.sol\":1154:1201  address[] memory members = new address[](count) */\n      swap1\n      pop\n        /* \"contracts/coffeeaccesscontrol/Roles.sol\":1207:1220  uint256 index */\n      0x00\n        /* \"contracts/coffeeaccesscontrol/Roles.sol\":1223:1224  0 */\n      dup1\n        /* \"contracts/coffeeaccesscontrol/Roles.sol\":1207:1224  uint256 index = 0 */\n      swap1\n      pop\n        /* \"contracts/coffeeaccesscontrol/Roles.sol\":1235:1245  uint256 ix */\n      0x00\n        /* \"contracts/coffeeaccesscontrol/Roles.sol\":1248:1249  0 */\n      dup1\n        /* \"contracts/coffeeaccesscontrol/Roles.sol\":1235:1249  uint256 ix = 0 */\n      swap1\n      pop\n        /* \"contracts/coffeeaccesscontrol/Roles.sol\":1230:1375  for (uint256 ix = 0; ix < 256; ix++) {... */\n    tag_47:\n        /* \"contracts/coffeeaccesscontrol/Roles.sol\":1256:1259  256 */\n      0x0100\n        /* \"contracts/coffeeaccesscontrol/Roles.sol\":1251:1253  ix */\n      dup2\n        /* \"contracts/coffeeaccesscontrol/Roles.sol\":1251:1259  ix < 256 */\n      lt\n        /* \"contracts/coffeeaccesscontrol/Roles.sol\":1230:1375  for (uint256 ix = 0; ix < 256; ix++) {... */\n      iszero\n      tag_48\n      jumpi\n        /* \"contracts/coffeeaccesscontrol/Roles.sol\":1279:1283  role */\n      dup6\n        /* \"contracts/coffeeaccesscontrol/Roles.sol\":1279:1290  role.bearer */\n      0x00\n      add\n        /* \"contracts/coffeeaccesscontrol/Roles.sol\":1279:1303  role.bearer[address(ix)] */\n      0x00\n        /* \"contracts/coffeeaccesscontrol/Roles.sol\":1299:1301  ix */\n      dup3\n        /* \"contracts/coffeeaccesscontrol/Roles.sol\":1279:1303  role.bearer[address(ix)] */\n      0xffffffffffffffffffffffffffffffffffffffff\n      and\n      0xffffffffffffffffffffffffffffffffffffffff\n      and\n      dup2\n      mstore\n      0x20\n      add\n      swap1\n      dup2\n      mstore\n      0x20\n      add\n      0x00\n      keccak256\n      0x00\n      swap1\n      sload\n      swap1\n      0x0100\n      exp\n      swap1\n      div\n      0xff\n      and\n        /* \"contracts/coffeeaccesscontrol/Roles.sol\":1275:1369  if (role.bearer[address(ix)]) {... */\n      iszero\n      tag_50\n      jumpi\n        /* \"contracts/coffeeaccesscontrol/Roles.sol\":1340:1342  ix */\n      dup1\n        /* \"contracts/coffeeaccesscontrol/Roles.sol\":1315:1322  members */\n      dup4\n        /* \"contracts/coffeeaccesscontrol/Roles.sol\":1323:1328  index */\n      dup4\n        /* \"contracts/coffeeaccesscontrol/Roles.sol\":1315:1329  members[index] */\n      dup2\n      mload\n      dup2\n      lt\n      tag_51\n      jumpi\n      invalid\n    tag_51:\n      0x20\n      mul\n      0x20\n      add\n      add\n        /* \"contracts/coffeeaccesscontrol/Roles.sol\":1315:1343  members[index] = address(ix) */\n      swap1\n      0xffffffffffffffffffffffffffffffffffffffff\n      and\n      swap1\n      dup2\n      0xffffffffffffffffffffffffffffffffffffffff\n      and\n      dup2\n      mstore\n      pop\n      pop\n        /* \"contracts/coffeeaccesscontrol/Roles.sol\":1353:1360  index++ */\n      dup2\n      dup1\n      0x01\n      add\n      swap3\n      pop\n      pop\n        /* \"contracts/coffeeaccesscontrol/Roles.sol\":1275:1369  if (role.bearer[address(ix)]) {... */\n    tag_50:\n        /* \"contracts/coffeeaccesscontrol/Roles.sol\":1261:1265  ix++ */\n      dup1\n      dup1\n      0x01\n      add\n      swap2\n      pop\n      pop\n        /* \"contracts/coffeeaccesscontrol/Roles.sol\":1230:1375  for (uint256 ix = 0; ix < 256; ix++) {... */\n      jump(tag_47)\n    tag_48:\n      pop\n        /* \"contracts/coffeeaccesscontrol/Roles.sol\":1388:1395  members */\n      dup2\n        /* \"contracts/coffeeaccesscontrol/Roles.sol\":1381:1395  return members */\n      swap4\n      pop\n      pop\n      pop\n      pop\n        /* \"contracts/coffeeaccesscontrol/Roles.sol\":919:1400  function getAllMembers(Role storage role)... */\n      swap2\n      swap1\n      pop\n      jump\t// out\n        /* \"contracts/coffeeaccesscontrol/Roles.sol\":749:915  function has(Role storage role, address account)... */\n    tag_34:\n        /* \"contracts/coffeeaccesscontrol/Roles.sol\":833:837  bool */\n      0x00\n        /* \"contracts/coffeeaccesscontrol/Roles.sol\":874:875  0 */\n      dup1\n        /* \"contracts/coffeeaccesscontrol/Roles.sol\":855:876  account != address(0) */\n      0xffffffffffffffffffffffffffffffffffffffff\n      and\n        /* \"contracts/coffeeaccesscontrol/Roles.sol\":855:862  account */\n      dup3\n        /* \"contracts/coffeeaccesscontrol/Roles.sol\":855:876  account != address(0) */\n      0xffffffffffffffffffffffffffffffffffffffff\n      and\n      eq\n      iszero\n        /* \"contracts/coffeeaccesscontrol/Roles.sol\":847:877  require(account != address(0)) */\n      tag_53\n      jumpi\n      0x00\n      dup1\n      revert\n    tag_53:\n        /* \"contracts/coffeeaccesscontrol/Roles.sol\":890:894  role */\n      dup3\n        /* \"contracts/coffeeaccesscontrol/Roles.sol\":890:901  role.bearer */\n      0x00\n      add\n        /* \"contracts/coffeeaccesscontrol/Roles.sol\":890:910  role.bearer[account] */\n      0x00\n        /* \"contracts/coffeeaccesscontrol/Roles.sol\":902:909  account */\n      dup4\n        /* \"contracts/coffeeaccesscontrol/Roles.sol\":890:910  role.bearer[account] */\n      0xffffffffffffffffffffffffffffffffffffffff\n      and\n      0xffffffffffffffffffffffffffffffffffffffff\n      and\n      dup2\n      mstore\n      0x20\n      add\n      swap1\n      dup2\n      mstore\n      0x20\n      add\n      0x00\n      keccak256\n      0x00\n      swap1\n      sload\n      swap1\n      0x0100\n      exp\n      swap1\n      div\n      0xff\n      and\n        /* \"contracts/coffeeaccesscontrol/Roles.sol\":883:910  return role.bearer[account] */\n      swap1\n      pop\n        /* \"contracts/coffeeaccesscontrol/Roles.sol\":749:915  function has(Role storage role, address account)... */\n      swap3\n      swap2\n      pop\n      pop\n      jump\t// out\n        /* \"contracts/coffeeaccesscontrol/Roles.sol\":501:671  function remove(Role storage role, address account) internal {... */\n    tag_37:\n        /* \"contracts/coffeeaccesscontrol/Roles.sol\":595:596  0 */\n      0x00\n        /* \"contracts/coffeeaccesscontrol/Roles.sol\":576:597  account != address(0) */\n      0xffffffffffffffffffffffffffffffffffffffff\n      and\n        /* \"contracts/coffeeaccesscontrol/Roles.sol\":576:583  account */\n      dup2\n        /* \"contracts/coffeeaccesscontrol/Roles.sol\":576:597  account != address(0) */\n      0xffffffffffffffffffffffffffffffffffffffff\n      and\n      eq\n      iszero\n        /* \"contracts/coffeeaccesscontrol/Roles.sol\":568:598  require(account != address(0)) */\n      tag_55\n      jumpi\n      0x00\n      dup1\n      revert\n    tag_55:\n        /* \"contracts/coffeeaccesscontrol/Roles.sol\":612:630  has(role, account) */\n      tag_56\n        /* \"contracts/coffeeaccesscontrol/Roles.sol\":616:620  role */\n      dup3\n        /* \"contracts/coffeeaccesscontrol/Roles.sol\":622:629  account */\n      dup3\n        /* \"contracts/coffeeaccesscontrol/Roles.sol\":612:615  has */\n      tag_34\n        /* \"contracts/coffeeaccesscontrol/Roles.sol\":612:630  has(role, account) */\n      jump\t// in\n    tag_56:\n        /* \"contracts/coffeeaccesscontrol/Roles.sol\":604:631  require(has(role, account)) */\n      tag_57\n      jumpi\n      0x00\n      dup1\n      revert\n    tag_57:\n        /* \"contracts/coffeeaccesscontrol/Roles.sol\":661:666  false */\n      0x00\n        /* \"contracts/coffeeaccesscontrol/Roles.sol\":638:642  role */\n      dup3\n        /* \"contracts/coffeeaccesscontrol/Roles.sol\":638:649  role.bearer */\n      0x00\n      add\n        /* \"contracts/coffeeaccesscontrol/Roles.sol\":638:658  role.bearer[account] */\n      0x00\n        /* \"contracts/coffeeaccesscontrol/Roles.sol\":650:657  account */\n      dup4\n        /* \"contracts/coffeeaccesscontrol/Roles.sol\":638:658  role.bearer[account] */\n      0xffffffffffffffffffffffffffffffffffffffff\n      and\n      0xffffffffffffffffffffffffffffffffffffffff\n      and\n      dup2\n      mstore\n      0x20\n      add\n      swap1\n      dup2\n      mstore\n      0x20\n      add\n      0x00\n      keccak256\n      0x00\n        /* \"contracts/coffeeaccesscontrol/Roles.sol\":638:666  role.bearer[account] = false */\n      0x0100\n      exp\n      dup2\n      sload\n      dup2\n      0xff\n      mul\n      not\n      and\n      swap1\n      dup4\n      iszero\n      iszero\n      mul\n      or\n      swap1\n      sstore\n      pop\n        /* \"contracts/coffeeaccesscontrol/Roles.sol\":501:671  function remove(Role storage role, address account) internal {... */\n      pop\n      pop\n      jump\t// out\n        /* \"contracts/coffeeaccesscontrol/Roles.sol\":244:435  function add(Role storage role, address account) internal {... */\n    tag_40:\n        /* \"contracts/coffeeaccesscontrol/Roles.sol\":335:336  0 */\n      0x00\n        /* \"contracts/coffeeaccesscontrol/Roles.sol\":316:337  account != address(0) */\n      0xffffffffffffffffffffffffffffffffffffffff\n      and\n        /* \"contracts/coffeeaccesscontrol/Roles.sol\":316:323  account */\n      dup2\n        /* \"contracts/coffeeaccesscontrol/Roles.sol\":316:337  account != address(0) */\n      0xffffffffffffffffffffffffffffffffffffffff\n      and\n      eq\n      iszero\n        /* \"contracts/coffeeaccesscontrol/Roles.sol\":308:362  require(account != address(0), \"Account is 0 address\") */\n      tag_59\n      jumpi\n      mload(0x40)\n      0x08c379a000000000000000000000000000000000000000000000000000000000\n      dup2\n      mstore\n      0x04\n      add\n      dup1\n      dup1\n      0x20\n      add\n      dup3\n      dup2\n      sub\n      dup3\n      mstore\n      0x14\n      dup2\n      mstore\n      0x20\n      add\n      dup1\n      0x4163636f756e7420697320302061646472657373000000000000000000000000\n      dup2\n      mstore\n      pop\n      0x20\n      add\n      swap2\n      pop\n      pop\n      mload(0x40)\n      dup1\n      swap2\n      sub\n      swap1\n      revert\n    tag_59:\n        /* \"contracts/coffeeaccesscontrol/Roles.sol\":377:395  has(role, account) */\n      tag_60\n        /* \"contracts/coffeeaccesscontrol/Roles.sol\":381:385  role */\n      dup3\n        /* \"contracts/coffeeaccesscontrol/Roles.sol\":387:394  account */\n      dup3\n        /* \"contracts/coffeeaccesscontrol/Roles.sol\":377:380  has */\n      tag_34\n        /* \"contracts/coffeeaccesscontrol/Roles.sol\":377:395  has(role, account) */\n      jump\t// in\n    tag_60:\n        /* \"contracts/coffeeaccesscontrol/Roles.sol\":376:395  !has(role, account) */\n      iszero\n        /* \"contracts/coffeeaccesscontrol/Roles.sol\":368:396  require(!has(role, account)) */\n      tag_61\n      jumpi\n      0x00\n      dup1\n      revert\n    tag_61:\n        /* \"contracts/coffeeaccesscontrol/Roles.sol\":426:430  true */\n      0x01\n        /* \"contracts/coffeeaccesscontrol/Roles.sol\":403:407  role */\n      dup3\n        /* \"contracts/coffeeaccesscontrol/Roles.sol\":403:414  role.bearer */\n      0x00\n      add\n        /* \"contracts/coffeeaccesscontrol/Roles.sol\":403:423  role.bearer[account] */\n      0x00\n        /* \"contracts/coffeeaccesscontrol/Roles.sol\":415:422  account */\n      dup4\n        /* \"contracts/coffeeaccesscontrol/Roles.sol\":403:423  role.bearer[account] */\n      0xffffffffffffffffffffffffffffffffffffffff\n      and\n      0xffffffffffffffffffffffffffffffffffffffff\n      and\n      dup2\n      mstore\n      0x20\n      add\n      swap1\n      dup2\n      mstore\n      0x20\n      add\n      0x00\n      keccak256\n      0x00\n        /* \"contracts/coffeeaccesscontrol/Roles.sol\":403:430  role.bearer[account] = true */\n      0x0100\n      exp\n      dup2\n      sload\n      dup2\n      0xff\n      mul\n      not\n      and\n      swap1\n      dup4\n      iszero\n      iszero\n      mul\n      or\n      swap1\n      sstore\n      pop\n        /* \"contracts/coffeeaccesscontrol/Roles.sol\":244:435  function add(Role storage role, address account) internal {... */\n      pop\n      pop\n      jump\t// out\n    stop\n    data_d4fa28ebc6c1c07b8b28cc8da1429dbf7b893b203aa1eb11aa2f29c11f0f7b6a 4f6e6c792061206469737472696275746f722063616e2063616c6c20746869732066756e6374696f6e2e\n\n    auxdata: 0xa265627a7a72315820e4189c1fecceeebd49a6a588f05934c249ade96ccaac34b03bbba50ae53a6e1964736f6c634300050c0032\n}\n",
				"bytecode": {
					"linkReferences": {},
					"object": "608060405234801561001057600080fd5b506100203361002560201b60201c565b610230565b61003d81600061008360201b6105751790919060201c565b8073ffffffffffffffffffffffffffffffffffffffff167fddbf200aa634dc3fb81cfd68583dd1040d1c751d335e1d86b631bde3e977fea860405160405180910390a250565b600073ffffffffffffffffffffffffffffffffffffffff168173ffffffffffffffffffffffffffffffffffffffff161415610126576040517f08c379a00000000000000000000000000000000000000000000000000000000081526004018080602001828103825260148152602001807f4163636f756e742069732030206164647265737300000000000000000000000081525060200191505060405180910390fd5b610136828261019e60201b60201c565b1561014057600080fd5b60018260000160008373ffffffffffffffffffffffffffffffffffffffff1673ffffffffffffffffffffffffffffffffffffffff16815260200190815260200160002060006101000a81548160ff0219169083151502179055505050565b60008073ffffffffffffffffffffffffffffffffffffffff168273ffffffffffffffffffffffffffffffffffffffff1614156101d957600080fd5b8260000160008373ffffffffffffffffffffffffffffffffffffffff1673ffffffffffffffffffffffffffffffffffffffff16815260200190815260200160002060009054906101000a900460ff16905092915050565b6106e98061023f6000396000f3fe608060405234801561001057600080fd5b506004361061004c5760003560e01c8063644241db146100515780637250e2241461005b5780638e24c34b1461009f5780638f0c86fa146100fe575b600080fd5b61005961015a565b005b61009d6004803603602081101561007157600080fd5b81019080803573ffffffffffffffffffffffffffffffffffffffff169060200190929190505050610165565b005b6100a76101cf565b6040518080602001828103825283818151815260200191508051906020019060200280838360005b838110156100ea5780820151818401526020810190506100cf565b505050509050019250505060405180910390f35b6101406004803603602081101561011457600080fd5b81019080803573ffffffffffffffffffffffffffffffffffffffff1690602001909291905050506101e0565b604051808215151515815260200191505060405180910390f35b610163336101fc565b565b61016e336101e0565b6101c3576040517f08c379a000000000000000000000000000000000000000000000000000000000815260040180806020018281038252602a81526020018061068b602a913960400191505060405180910390fd5b6101cc81610256565b50565b60606101db60006102b0565b905090565b60006101f682600061043890919063ffffffff16565b50919050565b6102108160006104ca90919063ffffffff16565b8073ffffffffffffffffffffffffffffffffffffffff167f126174f6cf49c81cdb4a9214c6b8f037bef55b4ec31e4fc776cea2a1c8a88d5960405160405180910390a250565b61026a81600061057590919063ffffffff16565b8073ffffffffffffffffffffffffffffffffffffffff167fddbf200aa634dc3fb81cfd68583dd1040d1c751d335e1d86b631bde3e977fea860405160405180910390a250565b6060600080905060008090505b610100811015610331578360000160008273ffffffffffffffffffffffffffffffffffffffff1673ffffffffffffffffffffffffffffffffffffffff16815260200190815260200160002060009054906101000a900460ff16156103245781806001019250505b80806001019150506102bd565b506060816040519080825280602002602001820160405280156103635781602001602082028038833980820191505090505b509050600080905060008090505b61010081101561042c578560000160008273ffffffffffffffffffffffffffffffffffffffff1673ffffffffffffffffffffffffffffffffffffffff16815260200190815260200160002060009054906101000a900460ff161561041f57808383815181106103dc57fe5b602002602001019073ffffffffffffffffffffffffffffffffffffffff16908173ffffffffffffffffffffffffffffffffffffffff168152505081806001019250505b8080600101915050610371565b50819350505050919050565b60008073ffffffffffffffffffffffffffffffffffffffff168273ffffffffffffffffffffffffffffffffffffffff16141561047357600080fd5b8260000160008373ffffffffffffffffffffffffffffffffffffffff1673ffffffffffffffffffffffffffffffffffffffff16815260200190815260200160002060009054906101000a900460ff16905092915050565b600073ffffffffffffffffffffffffffffffffffffffff168173ffffffffffffffffffffffffffffffffffffffff16141561050457600080fd5b61050e8282610438565b61051757600080fd5b60008260000160008373ffffffffffffffffffffffffffffffffffffffff1673ffffffffffffffffffffffffffffffffffffffff16815260200190815260200160002060006101000a81548160ff0219169083151502179055505050565b600073ffffffffffffffffffffffffffffffffffffffff168173ffffffffffffffffffffffffffffffffffffffff161415610618576040517f08c379a00000000000000000000000000000000000000000000000000000000081526004018080602001828103825260148152602001807f4163636f756e742069732030206164647265737300000000000000000000000081525060200191505060405180910390fd5b6106228282610438565b1561062c57600080fd5b60018260000160008373ffffffffffffffffffffffffffffffffffffffff1673ffffffffffffffffffffffffffffffffffffffff16815260200190815260200160002060006101000a81548160ff021916908315150217905550505056fe4f6e6c792061206469737472696275746f722063616e2063616c6c20746869732066756e6374696f6e2ea265627a7a72315820e4189c1fecceeebd49a6a588f05934c249ade96ccaac34b03bbba50ae53a6e1964736f6c634300050c0032",
					"opcodes": "PUSH1 0x80 PUSH1 0x40 MSTORE CALLVALUE DUP1 ISZERO PUSH2 0x10 JUMPI PUSH1 0x0 DUP1 REVERT JUMPDEST POP PUSH2 0x20 CALLER PUSH2 0x25 PUSH1 0x20 SHL PUSH1 0x20 SHR JUMP JUMPDEST PUSH2 0x230 JUMP JUMPDEST PUSH2 0x3D DUP2 PUSH1 0x0 PUSH2 0x83 PUSH1 0x20 SHL PUSH2 0x575 OR SWAP1 SWAP2 SWAP1 PUSH1 0x20 SHR JUMP JUMPDEST DUP1 PUSH20 0xFFFFFFFFFFFFFFFFFFFFFFFFFFFFFFFFFFFFFFFF AND PUSH32 0xDDBF200AA634DC3FB81CFD68583DD1040D1C751D335E1D86B631BDE3E977FEA8 PUSH1 0x40 MLOAD PUSH1 0x40 MLOAD DUP1 SWAP2 SUB SWAP1 LOG2 POP JUMP JUMPDEST PUSH1 0x0 PUSH20 0xFFFFFFFFFFFFFFFFFFFFFFFFFFFFFFFFFFFFFFFF AND DUP2 PUSH20 0xFFFFFFFFFFFFFFFFFFFFFFFFFFFFFFFFFFFFFFFF AND EQ ISZERO PUSH2 0x126 JUMPI PUSH1 0x40 MLOAD PUSH32 0x8C379A000000000000000000000000000000000000000000000000000000000 DUP2 MSTORE PUSH1 0x4 ADD DUP1 DUP1 PUSH1 0x20 ADD DUP3 DUP2 SUB DUP3 MSTORE PUSH1 0x14 DUP2 MSTORE PUSH1 0x20 ADD DUP1 PUSH32 0x4163636F756E7420697320302061646472657373000000000000000000000000 DUP2 MSTORE POP PUSH1 0x20 ADD SWAP2 POP POP PUSH1 0x40 MLOAD DUP1 SWAP2 SUB SWAP1 REVERT JUMPDEST PUSH2 0x136 DUP3 DUP3 PUSH2 0x19E PUSH1 0x20 SHL PUSH1 0x20 SHR JUMP JUMPDEST ISZERO PUSH2 0x140 JUMPI PUSH1 0x0 DUP1 REVERT JUMPDEST PUSH1 0x1 DUP3 PUSH1 0x0 ADD PUSH1 0x0 DUP4 PUSH20 0xFFFFFFFFFFFFFFFFFFFFFFFFFFFFFFFFFFFFFFFF AND PUSH20 0xFFFFFFFFFFFFFFFFFFFFFFFFFFFFFFFFFFFFFFFF AND DUP2 MSTORE PUSH1 0x20 ADD SWAP1 DUP2 MSTORE PUSH1 0x20 ADD PUSH1 0x0 KECCAK256 PUSH1 0x0 PUSH2 0x100 EXP DUP2 SLOAD DUP2 PUSH1 0xFF MUL NOT AND SWAP1 DUP4 ISZERO ISZERO MUL OR SWAP1 SSTORE POP POP POP JUMP JUMPDEST PUSH1 0x0 DUP1 PUSH20 0xFFFFFFFFFFFFFFFFFFFFFFFFFFFFFFFFFFFFFFFF AND DUP3 PUSH20 0xFFFFFFFFFFFFFFFFFFFFFFFFFFFFFFFFFFFFFFFF AND EQ ISZERO PUSH2 0x1D9 JUMPI PUSH1 0x0 DUP1 REVERT JUMPDEST DUP3 PUSH1 0x0 ADD PUSH1 0x0 DUP4 PUSH20 0xFFFFFFFFFFFFFFFFFFFFFFFFFFFFFFFFFFFFFFFF AND PUSH20 0xFFFFFFFFFFFFFFFFFFFFFFFFFFFFFFFFFFFFFFFF AND DUP2 MSTORE PUSH1 0x20 ADD SWAP1 DUP2 MSTORE PUSH1 0x20 ADD PUSH1 0x0 KECCAK256 PUSH1 0x0 SWAP1 SLOAD SWAP1 PUSH2 0x100 EXP SWAP1 DIV PUSH1 0xFF AND SWAP1 POP SWAP3 SWAP2 POP POP JUMP JUMPDEST PUSH2 0x6E9 DUP1 PUSH2 0x23F PUSH1 0x0 CODECOPY PUSH1 0x0 RETURN INVALID PUSH1 0x80 PUSH1 0x40 MSTORE CALLVALUE DUP1 ISZERO PUSH2 0x10 JUMPI PUSH1 0x0 DUP1 REVERT JUMPDEST POP PUSH1 0x4 CALLDATASIZE LT PUSH2 0x4C JUMPI PUSH1 0x0 CALLDATALOAD PUSH1 0xE0 SHR DUP1 PUSH4 0x644241DB EQ PUSH2 0x51 JUMPI DUP1 PUSH4 0x7250E224 EQ PUSH2 0x5B JUMPI DUP1 PUSH4 0x8E24C34B EQ PUSH2 0x9F JUMPI DUP1 PUSH4 0x8F0C86FA EQ PUSH2 0xFE JUMPI JUMPDEST PUSH1 0x0 DUP1 REVERT JUMPDEST PUSH2 0x59 PUSH2 0x15A JUMP JUMPDEST STOP JUMPDEST PUSH2 0x9D PUSH1 0x4 DUP1 CALLDATASIZE SUB PUSH1 0x20 DUP2 LT ISZERO PUSH2 0x71 JUMPI PUSH1 0x0 DUP1 REVERT JUMPDEST DUP2 ADD SWAP1 DUP1 DUP1 CALLDATALOAD PUSH20 0xFFFFFFFFFFFFFFFFFFFFFFFFFFFFFFFFFFFFFFFF AND SWAP1 PUSH1 0x20 ADD SWAP1 SWAP3 SWAP2 SWAP1 POP POP POP PUSH2 0x165 JUMP JUMPDEST STOP JUMPDEST PUSH2 0xA7 PUSH2 0x1CF JUMP JUMPDEST PUSH1 0x40 MLOAD DUP1 DUP1 PUSH1 0x20 ADD DUP3 DUP2 SUB DUP3 MSTORE DUP4 DUP2 DUP2 MLOAD DUP2 MSTORE PUSH1 0x20 ADD SWAP2 POP DUP1 MLOAD SWAP1 PUSH1 0x20 ADD SWAP1 PUSH1 0x20 MUL DUP1 DUP4 DUP4 PUSH1 0x0 JUMPDEST DUP4 DUP2 LT ISZERO PUSH2 0xEA JUMPI DUP1 DUP3 ADD MLOAD DUP2 DUP5 ADD MSTORE PUSH1 0x20 DUP2 ADD SWAP1 POP PUSH2 0xCF JUMP JUMPDEST POP POP POP POP SWAP1 POP ADD SWAP3 POP POP POP PUSH1 0x40 MLOAD DUP1 SWAP2 SUB SWAP1 RETURN JUMPDEST PUSH2 0x140 PUSH1 0x4 DUP1 CALLDATASIZE SUB PUSH1 0x20 DUP2 LT ISZERO PUSH2 0x114 JUMPI PUSH1 0x0 DUP1 REVERT JUMPDEST DUP2 ADD SWAP1 DUP1 DUP1 CALLDATALOAD PUSH20 0xFFFFFFFFFFFFFFFFFFFFFFFFFFFFFFFFFFFFFFFF AND SWAP1 PUSH1 0x20 ADD SWAP1 SWAP3 SWAP2 SWAP1 POP POP POP PUSH2 0x1E0 JUMP JUMPDEST PUSH1 0x40 MLOAD DUP1 DUP3 ISZERO ISZERO ISZERO ISZERO DUP2 MSTORE PUSH1 0x20 ADD SWAP2 POP POP PUSH1 0x40 MLOAD DUP1 SWAP2 SUB SWAP1 RETURN JUMPDEST PUSH2 0x163 CALLER PUSH2 0x1FC JUMP JUMPDEST JUMP JUMPDEST PUSH2 0x16E CALLER PUSH2 0x1E0 JUMP JUMPDEST PUSH2 0x1C3 JUMPI PUSH1 0x40 MLOAD PUSH32 0x8C379A000000000000000000000000000000000000000000000000000000000 DUP2 MSTORE PUSH1 0x4 ADD DUP1 DUP1 PUSH1 0x20 ADD DUP3 DUP2 SUB DUP3 MSTORE PUSH1 0x2A DUP2 MSTORE PUSH1 0x20 ADD DUP1 PUSH2 0x68B PUSH1 0x2A SWAP2 CODECOPY PUSH1 0x40 ADD SWAP2 POP POP PUSH1 0x40 MLOAD DUP1 SWAP2 SUB SWAP1 REVERT JUMPDEST PUSH2 0x1CC DUP2 PUSH2 0x256 JUMP JUMPDEST POP JUMP JUMPDEST PUSH1 0x60 PUSH2 0x1DB PUSH1 0x0 PUSH2 0x2B0 JUMP JUMPDEST SWAP1 POP SWAP1 JUMP JUMPDEST PUSH1 0x0 PUSH2 0x1F6 DUP3 PUSH1 0x0 PUSH2 0x438 SWAP1 SWAP2 SWAP1 PUSH4 0xFFFFFFFF AND JUMP JUMPDEST POP SWAP2 SWAP1 POP JUMP JUMPDEST PUSH2 0x210 DUP2 PUSH1 0x0 PUSH2 0x4CA SWAP1 SWAP2 SWAP1 PUSH4 0xFFFFFFFF AND JUMP JUMPDEST DUP1 PUSH20 0xFFFFFFFFFFFFFFFFFFFFFFFFFFFFFFFFFFFFFFFF AND PUSH32 0x126174F6CF49C81CDB4A9214C6B8F037BEF55B4EC31E4FC776CEA2A1C8A88D59 PUSH1 0x40 MLOAD PUSH1 0x40 MLOAD DUP1 SWAP2 SUB SWAP1 LOG2 POP JUMP JUMPDEST PUSH2 0x26A DUP2 PUSH1 0x0 PUSH2 0x575 SWAP1 SWAP2 SWAP1 PUSH4 0xFFFFFFFF AND JUMP JUMPDEST DUP1 PUSH20 0xFFFFFFFFFFFFFFFFFFFFFFFFFFFFFFFFFFFFFFFF AND PUSH32 0xDDBF200AA634DC3FB81CFD68583DD1040D1C751D335E1D86B631BDE3E977FEA8 PUSH1 0x40 MLOAD PUSH1 0x40 MLOAD DUP1 SWAP2 SUB SWAP1 LOG2 POP JUMP JUMPDEST PUSH1 0x60 PUSH1 0x0 DUP1 SWAP1 POP PUSH1 0x0 DUP1 SWAP1 POP JUMPDEST PUSH2 0x100 DUP2 LT ISZERO PUSH2 0x331 JUMPI DUP4 PUSH1 0x0 ADD PUSH1 0x0 DUP3 PUSH20 0xFFFFFFFFFFFFFFFFFFFFFFFFFFFFFFFFFFFFFFFF AND PUSH20 0xFFFFFFFFFFFFFFFFFFFFFFFFFFFFFFFFFFFFFFFF AND DUP2 MSTORE PUSH1 0x20 ADD SWAP1 DUP2 MSTORE PUSH1 0x20 ADD PUSH1 0x0 KECCAK256 PUSH1 0x0 SWAP1 SLOAD SWAP1 PUSH2 0x100 EXP SWAP1 DIV PUSH1 0xFF AND ISZERO PUSH2 0x324 JUMPI DUP2 DUP1 PUSH1 0x1 ADD SWAP3 POP POP JUMPDEST DUP1 DUP1 PUSH1 0x1 ADD SWAP2 POP POP PUSH2 0x2BD JUMP JUMPDEST POP PUSH1 0x60 DUP2 PUSH1 0x40 MLOAD SWAP1 DUP1 DUP3 MSTORE DUP1 PUSH1 0x20 MUL PUSH1 0x20 ADD DUP3 ADD PUSH1 0x40 MSTORE DUP1 ISZERO PUSH2 0x363 JUMPI DUP2 PUSH1 0x20 ADD PUSH1 0x20 DUP3 MUL DUP1 CODESIZE DUP4 CODECOPY DUP1 DUP3 ADD SWAP2 POP POP SWAP1 POP JUMPDEST POP SWAP1 POP PUSH1 0x0 DUP1 SWAP1 POP PUSH1 0x0 DUP1 SWAP1 POP JUMPDEST PUSH2 0x100 DUP2 LT ISZERO PUSH2 0x42C JUMPI DUP6 PUSH1 0x0 ADD PUSH1 0x0 DUP3 PUSH20 0xFFFFFFFFFFFFFFFFFFFFFFFFFFFFFFFFFFFFFFFF AND PUSH20 0xFFFFFFFFFFFFFFFFFFFFFFFFFFFFFFFFFFFFFFFF AND DUP2 MSTORE PUSH1 0x20 ADD SWAP1 DUP2 MSTORE PUSH1 0x20 ADD PUSH1 0x0 KECCAK256 PUSH1 0x0 SWAP1 SLOAD SWAP1 PUSH2 0x100 EXP SWAP1 DIV PUSH1 0xFF AND ISZERO PUSH2 0x41F JUMPI DUP1 DUP4 DUP4 DUP2 MLOAD DUP2 LT PUSH2 0x3DC JUMPI INVALID JUMPDEST PUSH1 0x20 MUL PUSH1 0x20 ADD ADD SWAP1 PUSH20 0xFFFFFFFFFFFFFFFFFFFFFFFFFFFFFFFFFFFFFFFF AND SWAP1 DUP2 PUSH20 0xFFFFFFFFFFFFFFFFFFFFFFFFFFFFFFFFFFFFFFFF AND DUP2 MSTORE POP POP DUP2 DUP1 PUSH1 0x1 ADD SWAP3 POP POP JUMPDEST DUP1 DUP1 PUSH1 0x1 ADD SWAP2 POP POP PUSH2 0x371 JUMP JUMPDEST POP DUP2 SWAP4 POP POP POP POP SWAP2 SWAP1 POP JUMP JUMPDEST PUSH1 0x0 DUP1 PUSH20 0xFFFFFFFFFFFFFFFFFFFFFFFFFFFFFFFFFFFFFFFF AND DUP3 PUSH20 0xFFFFFFFFFFFFFFFFFFFFFFFFFFFFFFFFFFFFFFFF AND EQ ISZERO PUSH2 0x473 JUMPI PUSH1 0x0 DUP1 REVERT JUMPDEST DUP3 PUSH1 0x0 ADD PUSH1 0x0 DUP4 PUSH20 0xFFFFFFFFFFFFFFFFFFFFFFFFFFFFFFFFFFFFFFFF AND PUSH20 0xFFFFFFFFFFFFFFFFFFFFFFFFFFFFFFFFFFFFFFFF AND DUP2 MSTORE PUSH1 0x20 ADD SWAP1 DUP2 MSTORE PUSH1 0x20 ADD PUSH1 0x0 KECCAK256 PUSH1 0x0 SWAP1 SLOAD SWAP1 PUSH2 0x100 EXP SWAP1 DIV PUSH1 0xFF AND SWAP1 POP SWAP3 SWAP2 POP POP JUMP JUMPDEST PUSH1 0x0 PUSH20 0xFFFFFFFFFFFFFFFFFFFFFFFFFFFFFFFFFFFFFFFF AND DUP2 PUSH20 0xFFFFFFFFFFFFFFFFFFFFFFFFFFFFFFFFFFFFFFFF AND EQ ISZERO PUSH2 0x504 JUMPI PUSH1 0x0 DUP1 REVERT JUMPDEST PUSH2 0x50E DUP3 DUP3 PUSH2 0x438 JUMP JUMPDEST PUSH2 0x517 JUMPI PUSH1 0x0 DUP1 REVERT JUMPDEST PUSH1 0x0 DUP3 PUSH1 0x0 ADD PUSH1 0x0 DUP4 PUSH20 0xFFFFFFFFFFFFFFFFFFFFFFFFFFFFFFFFFFFFFFFF AND PUSH20 0xFFFFFFFFFFFFFFFFFFFFFFFFFFFFFFFFFFFFFFFF AND DUP2 MSTORE PUSH1 0x20 ADD SWAP1 DUP2 MSTORE PUSH1 0x20 ADD PUSH1 0x0 KECCAK256 PUSH1 0x0 PUSH2 0x100 EXP DUP2 SLOAD DUP2 PUSH1 0xFF MUL NOT AND SWAP1 DUP4 ISZERO ISZERO MUL OR SWAP1 SSTORE POP POP POP JUMP JUMPDEST PUSH1 0x0 PUSH20 0xFFFFFFFFFFFFFFFFFFFFFFFFFFFFFFFFFFFFFFFF AND DUP2 PUSH20 0xFFFFFFFFFFFFFFFFFFFFFFFFFFFFFFFFFFFFFFFF AND EQ ISZERO PUSH2 0x618 JUMPI PUSH1 0x40 MLOAD PUSH32 0x8C379A000000000000000000000000000000000000000000000000000000000 DUP2 MSTORE PUSH1 0x4 ADD DUP1 DUP1 PUSH1 0x20 ADD DUP3 DUP2 SUB DUP3 MSTORE PUSH1 0x14 DUP2 MSTORE PUSH1 0x20 ADD DUP1 PUSH32 0x4163636F756E7420697320302061646472657373000000000000000000000000 DUP2 MSTORE POP PUSH1 0x20 ADD SWAP2 POP POP PUSH1 0x40 MLOAD DUP1 SWAP2 SUB SWAP1 REVERT JUMPDEST PUSH2 0x622 DUP3 DUP3 PUSH2 0x438 JUMP JUMPDEST ISZERO PUSH2 0x62C JUMPI PUSH1 0x0 DUP1 REVERT JUMPDEST PUSH1 0x1 DUP3 PUSH1 0x0 ADD PUSH1 0x0 DUP4 PUSH20 0xFFFFFFFFFFFFFFFFFFFFFFFFFFFFFFFFFFFFFFFF AND PUSH20 0xFFFFFFFFFFFFFFFFFFFFFFFFFFFFFFFFFFFFFFFF AND DUP2 MSTORE PUSH1 0x20 ADD SWAP1 DUP2 MSTORE PUSH1 0x20 ADD PUSH1 0x0 KECCAK256 PUSH1 0x0 PUSH2 0x100 EXP DUP2 SLOAD DUP2 PUSH1 0xFF MUL NOT AND SWAP1 DUP4 ISZERO ISZERO MUL OR SWAP1 SSTORE POP POP POP JUMP INVALID 0x4f PUSH15 0x6C792061206469737472696275746F PUSH19 0x2063616E2063616C6C20746869732066756E63 PUSH21 0x696F6E2EA265627A7A72315820E4189C1FECCEEEBD 0x49 0xa6 0xa5 DUP9 CREATE MSIZE CALLVALUE 0xc2 0x49 0xad 0xe9 PUSH13 0xCAAC34B03BBBA50AE53A6E1964 PUSH20 0x6F6C634300050C00320000000000000000000000 "
				},
				"gasEstimates": {
					"creation": {
						"codeDepositCost": "353800",
						"executionCost": "infinite",
						"totalCost": "infinite"
					},
					"external": {
						"addDistributor(address)": "infinite",
						"getAllDistributors()": "infinite",
						"isDistributor(address)": "infinite",
						"renounceDistributor()": "infinite"
					},
					"internal": {
						"_addDistributor(address)": "infinite",
						"_removeDistributor(address)": "infinite"
					}
				},
				"methodIdentifiers": {
					"addDistributor(address)": "7250e224",
					"getAllDistributors()": "8e24c34b",
					"isDistributor(address)": "8f0c86fa",
					"renounceDistributor()": "644241db"
				}
			},
			"userdoc": {
				"methods": {}
			}
		}
	}
}